{
  "contractName": "ehr",
  "abi": [
    {
      "inputs": [],
      "payable": false,
      "stateMutability": "nonpayable",
      "type": "constructor"
    },
    {
      "anonymous": false,
      "inputs": [
        {
          "indexed": false,
          "internalType": "address",
          "name": "publickey",
          "type": "address"
        },
        {
          "indexed": false,
          "internalType": "string",
          "name": "name",
          "type": "string"
        },
        {
          "indexed": false,
          "internalType": "string",
          "name": "DOB",
          "type": "string"
        },
        {
          "indexed": false,
          "internalType": "string",
          "name": "addrs",
          "type": "string"
        },
        {
          "indexed": false,
          "internalType": "string",
          "name": "email",
          "type": "string"
        },
        {
          "indexed": false,
          "internalType": "enum ehr.gender",
          "name": "myGender",
          "type": "uint8"
        },
        {
          "indexed": false,
          "internalType": "string",
          "name": "hospitalname",
          "type": "string"
        },
        {
          "indexed": false,
          "internalType": "string",
          "name": "qualifications",
          "type": "string"
        }
      ],
      "name": "DoctorCreated",
      "type": "event"
    },
    {
      "anonymous": false,
      "inputs": [
        {
          "indexed": false,
          "internalType": "address",
          "name": "publickey",
          "type": "address"
        },
        {
          "indexed": false,
          "internalType": "string",
          "name": "name",
          "type": "string"
        },
        {
          "indexed": false,
          "internalType": "string",
          "name": "email",
          "type": "string"
        },
        {
          "indexed": false,
          "internalType": "uint256",
          "name": "phone",
          "type": "uint256"
        },
        {
          "indexed": false,
          "internalType": "string",
          "name": "ownership",
          "type": "string"
        },
        {
          "indexed": false,
          "internalType": "string",
          "name": "haddress",
          "type": "string"
        }
      ],
      "name": "HospitalCreated",
      "type": "event"
    },
    {
      "anonymous": false,
      "inputs": [
        {
          "indexed": false,
          "internalType": "address",
          "name": "owner",
          "type": "address"
        },
        {
          "indexed": false,
          "internalType": "string",
          "name": "name",
          "type": "string"
        },
        {
          "indexed": false,
          "internalType": "string",
          "name": "DOB",
          "type": "string"
        },
        {
          "indexed": false,
          "internalType": "string",
          "name": "addrs",
          "type": "string"
        },
        {
          "indexed": false,
          "internalType": "string",
          "name": "email",
          "type": "string"
        },
        {
          "indexed": false,
          "internalType": "enum ehr.gender",
          "name": "myGender",
          "type": "uint8"
        }
      ],
      "name": "PatientCreated",
      "type": "event"
    },
    {
      "constant": true,
      "inputs": [
        {
          "internalType": "uint256",
          "name": "",
          "type": "uint256"
        },
        {
          "internalType": "uint256",
          "name": "",
          "type": "uint256"
        }
      ],
      "name": "addcerti",
      "outputs": [
        {
          "internalType": "string",
          "name": "",
          "type": "string"
        }
      ],
      "payable": false,
      "stateMutability": "view",
      "type": "function"
    },
    {
      "constant": true,
      "inputs": [
        {
          "internalType": "uint256",
          "name": "",
          "type": "uint256"
        }
      ],
      "name": "certcount",
      "outputs": [
        {
          "internalType": "uint256",
          "name": "",
          "type": "uint256"
        }
      ],
      "payable": false,
      "stateMutability": "view",
      "type": "function"
    },
    {
      "constant": true,
      "inputs": [
        {
          "internalType": "uint256",
          "name": "",
          "type": "uint256"
        }
      ],
      "name": "dctr",
      "outputs": [
        {
          "internalType": "address",
          "name": "publickey",
          "type": "address"
        },
        {
          "internalType": "string",
          "name": "name",
          "type": "string"
        },
        {
          "internalType": "string",
          "name": "DOB",
          "type": "string"
        },
        {
          "internalType": "string",
          "name": "addrs",
          "type": "string"
        },
        {
          "internalType": "string",
          "name": "email",
          "type": "string"
        },
        {
          "internalType": "enum ehr.gender",
          "name": "myGender",
          "type": "uint8"
        },
        {
          "internalType": "string",
          "name": "hospitalname",
          "type": "string"
        },
        {
          "internalType": "string",
          "name": "qualifications",
          "type": "string"
        }
      ],
      "payable": false,
      "stateMutability": "view",
      "type": "function"
    },
    {
      "constant": true,
      "inputs": [
        {
          "internalType": "uint256",
          "name": "",
          "type": "uint256"
        }
      ],
      "name": "hospitaldetails",
      "outputs": [
        {
          "internalType": "address",
          "name": "publickey",
          "type": "address"
        },
        {
          "internalType": "string",
          "name": "name",
          "type": "string"
        },
        {
          "internalType": "string",
          "name": "email",
          "type": "string"
        },
        {
          "internalType": "uint256",
          "name": "phone",
          "type": "uint256"
        },
        {
          "internalType": "string",
          "name": "ownership",
          "type": "string"
        },
        {
          "internalType": "string",
          "name": "haddress",
          "type": "string"
        }
      ],
      "payable": false,
      "stateMutability": "view",
      "type": "function"
    },
    {
      "constant": true,
      "inputs": [
        {
          "internalType": "uint256",
          "name": "",
          "type": "uint256"
        }
      ],
      "name": "person",
      "outputs": [
        {
          "internalType": "address",
          "name": "owner",
          "type": "address"
        },
        {
          "internalType": "string",
          "name": "name",
          "type": "string"
        },
        {
          "internalType": "string",
          "name": "DOB",
          "type": "string"
        },
        {
          "internalType": "string",
          "name": "addrs",
          "type": "string"
        },
        {
          "internalType": "string",
          "name": "email",
          "type": "string"
        },
        {
          "internalType": "enum ehr.gender",
          "name": "myGender",
          "type": "uint8"
        }
      ],
      "payable": false,
      "stateMutability": "view",
      "type": "function"
    },
    {
      "constant": false,
      "inputs": [
        {
          "internalType": "uint256",
          "name": "_mobileno",
          "type": "uint256"
        },
        {
          "internalType": "string",
          "name": "_name",
          "type": "string"
        },
        {
          "internalType": "string",
          "name": "_DOB",
          "type": "string"
        },
        {
          "internalType": "string",
          "name": "_addrs",
          "type": "string"
        },
        {
          "internalType": "string",
          "name": "_email",
          "type": "string"
        },
        {
          "internalType": "enum ehr.gender",
          "name": "_myGender",
          "type": "uint8"
        }
      ],
      "name": "setPatient",
      "outputs": [],
      "payable": false,
      "stateMutability": "nonpayable",
      "type": "function"
    },
    {
      "constant": true,
      "inputs": [
        {
          "internalType": "uint256",
          "name": "_mobileno",
          "type": "uint256"
        }
      ],
      "name": "getPatient",
      "outputs": [
        {
          "internalType": "string",
          "name": "_name",
          "type": "string"
        },
        {
          "internalType": "string",
          "name": "_DOB",
          "type": "string"
        },
        {
          "internalType": "string",
          "name": "_addrs",
          "type": "string"
        },
        {
          "internalType": "string",
          "name": "_email",
          "type": "string"
        },
        {
          "internalType": "enum ehr.gender",
          "name": "_myGender",
          "type": "uint8"
        }
      ],
      "payable": false,
      "stateMutability": "view",
      "type": "function"
    },
    {
      "constant": false,
      "inputs": [
        {
          "internalType": "uint256",
          "name": "_id",
          "type": "uint256"
        },
        {
          "internalType": "address",
          "name": "_publickey",
          "type": "address"
        },
        {
          "internalType": "string",
          "name": "_name",
          "type": "string"
        },
        {
          "internalType": "string",
          "name": "_DOB",
          "type": "string"
        },
        {
          "internalType": "string",
          "name": "_addrs",
          "type": "string"
        },
        {
          "internalType": "string",
          "name": "_email",
          "type": "string"
        },
        {
          "internalType": "enum ehr.gender",
          "name": "_myGender",
          "type": "uint8"
        },
        {
          "internalType": "string",
          "name": "_hospitalname",
          "type": "string"
        },
        {
          "internalType": "string",
          "name": "_qualifications",
          "type": "string"
        }
      ],
      "name": "setDoctor",
      "outputs": [],
      "payable": false,
      "stateMutability": "nonpayable",
      "type": "function"
    },
    {
      "constant": true,
      "inputs": [
        {
          "internalType": "uint256",
          "name": "_id",
          "type": "uint256"
        }
      ],
      "name": "getDoctor",
      "outputs": [
        {
          "internalType": "address",
          "name": "_publickey",
          "type": "address"
        },
        {
          "internalType": "string",
          "name": "_name",
          "type": "string"
        },
        {
          "internalType": "string",
          "name": "_DOB",
          "type": "string"
        },
        {
          "internalType": "string",
          "name": "_addrs",
          "type": "string"
        },
        {
          "internalType": "string",
          "name": "_email",
          "type": "string"
        },
        {
          "internalType": "enum ehr.gender",
          "name": "_myGender",
          "type": "uint8"
        },
        {
          "internalType": "string",
          "name": "_hospitalname",
          "type": "string"
        },
        {
          "internalType": "string",
          "name": "_qualifications",
          "type": "string"
        }
      ],
      "payable": false,
      "stateMutability": "view",
      "type": "function"
    },
    {
      "constant": false,
      "inputs": [
        {
          "internalType": "uint256",
          "name": "_id",
          "type": "uint256"
        },
        {
          "internalType": "address",
          "name": "_publickey",
          "type": "address"
        },
        {
          "internalType": "string",
          "name": "_name",
          "type": "string"
        },
        {
          "internalType": "string",
          "name": "_email",
          "type": "string"
        },
        {
          "internalType": "uint256",
          "name": "_phone",
          "type": "uint256"
        },
        {
          "internalType": "string",
          "name": "_ownership",
          "type": "string"
        },
        {
          "internalType": "string",
          "name": "_haddress",
          "type": "string"
        }
      ],
      "name": "setHospital",
      "outputs": [
        {
          "internalType": "bool",
          "name": "",
          "type": "bool"
        }
      ],
      "payable": false,
      "stateMutability": "nonpayable",
      "type": "function"
    },
    {
      "constant": true,
      "inputs": [
        {
          "internalType": "uint256",
          "name": "_id",
          "type": "uint256"
        }
      ],
      "name": "getHospital",
      "outputs": [
        {
          "internalType": "address",
          "name": "_publickey",
          "type": "address"
        },
        {
          "internalType": "string",
          "name": "_name",
          "type": "string"
        },
        {
          "internalType": "string",
          "name": "_email",
          "type": "string"
        },
        {
          "internalType": "uint256",
          "name": "_phone",
          "type": "uint256"
        },
        {
          "internalType": "string",
          "name": "_ownership",
          "type": "string"
        },
        {
          "internalType": "string",
          "name": "_haddress",
          "type": "string"
        }
      ],
      "payable": false,
      "stateMutability": "view",
      "type": "function"
    },
    {
      "constant": false,
      "inputs": [
        {
          "internalType": "uint256",
          "name": "_mobileno",
          "type": "uint256"
        },
        {
          "internalType": "string",
          "name": "_certhash",
          "type": "string"
        }
      ],
      "name": "setCertificate",
      "outputs": [],
      "payable": false,
      "stateMutability": "nonpayable",
      "type": "function"
    },
    {
      "constant": false,
      "inputs": [
        {
          "internalType": "uint256",
          "name": "_mobileno",
          "type": "uint256"
        },
        {
          "internalType": "uint256",
          "name": "_count",
          "type": "uint256"
        }
      ],
      "name": "setcount",
      "outputs": [],
      "payable": false,
      "stateMutability": "nonpayable",
      "type": "function"
    }
  ],
  "bytecode": "0x608060405234801561001057600080fd5b50336000806101000a81548173ffffffffffffffffffffffffffffffffffffffff021916908373ffffffffffffffffffffffffffffffffffffffff160217905550612a63806100606000396000f3fe608060405234801561001057600080fd5b50600436106100cf5760003560e01c8063844a4e881161008c578063b06efa9e11610066578063b06efa9e14610278578063e319169f14610294578063ec29005d146102b0578063ee7c2f66146102e5576100cf565b8063844a4e88146101f7578063a7470f9a14610213578063af28495b14610248576100cf565b8063092a1820146100d45780633813c06b1461010957806354efaea11461012557806369b0a72d1461015c5780637b4e8ce4146101935780637d3a6796146101c3575b600080fd5b6100ee60048036036100e99190810190611fa1565b610315565b604051610100969594939291906125f6565b60405180910390f35b610123600480360361011e9190810190612272565b6105de565b005b61013f600480360361013a9190810190611fa1565b61076f565b604051610153989796959493929190612673565b60405180910390f35b61017660048036036101719190810190611fa1565b610b74565b60405161018a9897969594939291906124d1565b60405180910390f35b6101ad60048036036101a89190810190611fa1565b611011565b6040516101ba9190612844565b60405180910390f35b6101dd60048036036101d89190810190611fa1565b611029565b6040516101ee9594939291906127d5565b60405180910390f35b610211600480360361020c919081019061235b565b611324565b005b61022d60048036036102289190810190611fa1565b611340565b60405161023f96959493929190612579565b60405180910390f35b610262600480360361025d9190810190612120565b611669565b60405161026f9190612798565b60405180910390f35b610292600480360361028d919081019061221e565b61182e565b005b6102ae60048036036102a99190810190611fca565b611891565b005b6102ca60048036036102c59190810190611fa1565b611a70565b6040516102dc9695949392919061271b565b60405180910390f35b6102ff60048036036102fa919081019061235b565b611d2c565b60405161030c91906127b3565b60405180910390f35b60016020528060005260406000206000915090508060000160009054906101000a900473ffffffffffffffffffffffffffffffffffffffff1690806001018054600181600116156101000203166002900480601f0160208091040260200160405190810160405280929190818152602001828054600181600116156101000203166002900480156103e75780601f106103bc576101008083540402835291602001916103e7565b820191906000526020600020905b8154815290600101906020018083116103ca57829003601f168201915b505050505090806002018054600181600116156101000203166002900480601f0160208091040260200160405190810160405280929190818152602001828054600181600116156101000203166002900480156104855780601f1061045a57610100808354040283529160200191610485565b820191906000526020600020905b81548152906001019060200180831161046857829003601f168201915b505050505090806003018054600181600116156101000203166002900480601f0160208091040260200160405190810160405280929190818152602001828054600181600116156101000203166002900480156105235780601f106104f857610100808354040283529160200191610523565b820191906000526020600020905b81548152906001019060200180831161050657829003601f168201915b505050505090806004018054600181600116156101000203166002900480601f0160208091040260200160405190810160405280929190818152602001828054600181600116156101000203166002900480156105c15780601f10610596576101008083540402835291602001916105c1565b820191906000526020600020905b8154815290600101906020018083116105a457829003601f168201915b5050505050908060050160009054906101000a900460ff16905086565b6040518060c001604052803373ffffffffffffffffffffffffffffffffffffffff16815260200186815260200185815260200184815260200183815260200182600281111561062957fe5b8152506001600088815260200190815260200160002060008201518160000160006101000a81548173ffffffffffffffffffffffffffffffffffffffff021916908373ffffffffffffffffffffffffffffffffffffffff16021790555060208201518160010190805190602001906106a2929190611de9565b5060408201518160020190805190602001906106bf929190611de9565b5060608201518160030190805190602001906106dc929190611de9565b5060808201518160040190805190602001906106f9929190611de9565b5060a08201518160050160006101000a81548160ff0219169083600281111561071e57fe5b02179055509050507fa8ea08005e0d33bc841ba9d8326272401605a2581bc194624c84d1257ba91bd633868686868660405161075f96959493929190612454565b60405180910390a1505050505050565b60026020528060005260406000206000915090508060000160009054906101000a900473ffffffffffffffffffffffffffffffffffffffff1690806001018054600181600116156101000203166002900480601f0160208091040260200160405190810160405280929190818152602001828054600181600116156101000203166002900480156108415780601f1061081657610100808354040283529160200191610841565b820191906000526020600020905b81548152906001019060200180831161082457829003601f168201915b505050505090806002018054600181600116156101000203166002900480601f0160208091040260200160405190810160405280929190818152602001828054600181600116156101000203166002900480156108df5780601f106108b4576101008083540402835291602001916108df565b820191906000526020600020905b8154815290600101906020018083116108c257829003601f168201915b505050505090806003018054600181600116156101000203166002900480601f01602080910402602001604051908101604052809291908181526020018280546001816001161561010002031660029004801561097d5780601f106109525761010080835404028352916020019161097d565b820191906000526020600020905b81548152906001019060200180831161096057829003601f168201915b505050505090806004018054600181600116156101000203166002900480601f016020809104026020016040519081016040528092919081815260200182805460018160011615610100020316600290048015610a1b5780601f106109f057610100808354040283529160200191610a1b565b820191906000526020600020905b8154815290600101906020018083116109fe57829003601f168201915b5050505050908060050160009054906101000a900460ff1690806006018054600181600116156101000203166002900480601f016020809104026020016040519081016040528092919081815260200182805460018160011615610100020316600290048015610acc5780601f10610aa157610100808354040283529160200191610acc565b820191906000526020600020905b815481529060010190602001808311610aaf57829003601f168201915b505050505090806007018054600181600116156101000203166002900480601f016020809104026020016040519081016040528092919081815260200182805460018160011615610100020316600290048015610b6a5780601f10610b3f57610100808354040283529160200191610b6a565b820191906000526020600020905b815481529060010190602001808311610b4d57829003601f168201915b5050505050905088565b60006060806060806000606080600260008a815260200190815260200160002060000160009054906101000a900473ffffffffffffffffffffffffffffffffffffffff169750600260008a81526020019081526020016000206001018054600181600116156101000203166002900480601f016020809104026020016040519081016040528092919081815260200182805460018160011615610100020316600290048015610c645780601f10610c3957610100808354040283529160200191610c64565b820191906000526020600020905b815481529060010190602001808311610c4757829003601f168201915b50505050509650600260008a81526020019081526020016000206002018054600181600116156101000203166002900480601f016020809104026020016040519081016040528092919081815260200182805460018160011615610100020316600290048015610d155780601f10610cea57610100808354040283529160200191610d15565b820191906000526020600020905b815481529060010190602001808311610cf857829003601f168201915b50505050509550600260008a81526020019081526020016000206003018054600181600116156101000203166002900480601f016020809104026020016040519081016040528092919081815260200182805460018160011615610100020316600290048015610dc65780601f10610d9b57610100808354040283529160200191610dc6565b820191906000526020600020905b815481529060010190602001808311610da957829003601f168201915b50505050509450600260008a81526020019081526020016000206004018054600181600116156101000203166002900480601f016020809104026020016040519081016040528092919081815260200182805460018160011615610100020316600290048015610e775780601f10610e4c57610100808354040283529160200191610e77565b820191906000526020600020905b815481529060010190602001808311610e5a57829003601f168201915b50505050509350600260008a815260200190815260200160002060050160009054906101000a900460ff169250600260008a81526020019081526020016000206006018054600181600116156101000203166002900480601f016020809104026020016040519081016040528092919081815260200182805460018160011615610100020316600290048015610f4e5780601f10610f2357610100808354040283529160200191610f4e565b820191906000526020600020905b815481529060010190602001808311610f3157829003601f168201915b50505050509150600260008a81526020019081526020016000206007018054600181600116156101000203166002900480601f016020809104026020016040519081016040528092919081815260200182805460018160011615610100020316600290048015610fff5780601f10610fd457610100808354040283529160200191610fff565b820191906000526020600020905b815481529060010190602001808311610fe257829003601f168201915b50505050509050919395975091939597565b60056020528060005260406000206000915090505481565b6060806060806000600160008781526020019081526020016000206001018054600181600116156101000203166002900480601f0160208091040260200160405190810160405280929190818152602001828054600181600116156101000203166002900480156110db5780601f106110b0576101008083540402835291602001916110db565b820191906000526020600020905b8154815290600101906020018083116110be57829003601f168201915b50505050509450600160008781526020019081526020016000206002018054600181600116156101000203166002900480601f01602080910402602001604051908101604052809291908181526020018280546001816001161561010002031660029004801561118c5780601f106111615761010080835404028352916020019161118c565b820191906000526020600020905b81548152906001019060200180831161116f57829003601f168201915b50505050509350600160008781526020019081526020016000206003018054600181600116156101000203166002900480601f01602080910402602001604051908101604052809291908181526020018280546001816001161561010002031660029004801561123d5780601f106112125761010080835404028352916020019161123d565b820191906000526020600020905b81548152906001019060200180831161122057829003601f168201915b50505050509250600160008781526020019081526020016000206004018054600181600116156101000203166002900480601f0160208091040260200160405190810160405280929190818152602001828054600181600116156101000203166002900480156112ee5780601f106112c3576101008083540402835291602001916112ee565b820191906000526020600020905b8154815290600101906020018083116112d157829003601f168201915b505050505091506001600087815260200190815260200160002060050160009054906101000a900460ff16905091939590929450565b8060056000848152602001908152602001600020819055505050565b600060608060006060806003600088815260200190815260200160002060000160009054906101000a900473ffffffffffffffffffffffffffffffffffffffff169550600360008881526020019081526020016000206001018054600181600116156101000203166002900480601f01602080910402602001604051908101604052809291908181526020018280546001816001161561010002031660029004801561142d5780601f106114025761010080835404028352916020019161142d565b820191906000526020600020905b81548152906001019060200180831161141057829003601f168201915b50505050509450600360008881526020019081526020016000206002018054600181600116156101000203166002900480601f0160208091040260200160405190810160405280929190818152602001828054600181600116156101000203166002900480156114de5780601f106114b3576101008083540402835291602001916114de565b820191906000526020600020905b8154815290600101906020018083116114c157829003601f168201915b5050505050935060036000888152602001908152602001600020600301549250600360008881526020019081526020016000206004018054600181600116156101000203166002900480601f0160208091040260200160405190810160405280929190818152602001828054600181600116156101000203166002900480156115a85780601f1061157d576101008083540402835291602001916115a8565b820191906000526020600020905b81548152906001019060200180831161158b57829003601f168201915b50505050509150600360008881526020019081526020016000206005018054600181600116156101000203166002900480601f0160208091040260200160405190810160405280929190818152602001828054600181600116156101000203166002900480156116595780601f1061162e57610100808354040283529160200191611659565b820191906000526020600020905b81548152906001019060200180831161163c57829003601f168201915b5050505050905091939550919395565b60008060009054906101000a900473ffffffffffffffffffffffffffffffffffffffff1673ffffffffffffffffffffffffffffffffffffffff163373ffffffffffffffffffffffffffffffffffffffff16146116c457600080fd5b6040518060c001604052808873ffffffffffffffffffffffffffffffffffffffff16815260200187815260200186815260200185815260200184815260200183815250600360008a815260200190815260200160002060008201518160000160006101000a81548173ffffffffffffffffffffffffffffffffffffffff021916908373ffffffffffffffffffffffffffffffffffffffff160217905550602082015181600101908051906020019061177d929190611de9565b50604082015181600201908051906020019061179a929190611de9565b506060820151816003015560808201518160040190805190602001906117c1929190611de9565b5060a08201518160050190805190602001906117de929190611de9565b509050507f26f67f729d8756725d9f3dc181794b941932e19e84c9eb66946845e629bf991f87878787878760405161181b96959493929190612579565b60405180910390a1979650505050505050565b600060016005600085815260200190815260200160002054019050816004600085815260200190815260200160002060008381526020019081526020016000209080519060200190611881929190611e69565b5061188c8382611324565b505050565b6040518061010001604052808973ffffffffffffffffffffffffffffffffffffffff1681526020018881526020018781526020018681526020018581526020018460028111156118dd57fe5b815260200183815260200182815250600260008b815260200190815260200160002060008201518160000160006101000a81548173ffffffffffffffffffffffffffffffffffffffff021916908373ffffffffffffffffffffffffffffffffffffffff1602179055506020820151816001019080519060200190611962929190611de9565b50604082015181600201908051906020019061197f929190611de9565b50606082015181600301908051906020019061199c929190611de9565b5060808201518160040190805190602001906119b9929190611de9565b5060a08201518160050160006101000a81548160ff021916908360028111156119de57fe5b021790555060c08201518160060190805190602001906119ff929190611de9565b5060e0820151816007019080519060200190611a1c929190611de9565b509050507fe787fc8f7efee730a30f6f196008e32117122a8b672e52bc04868d3c2c9731568888888888888888604051611a5d9897969594939291906124d1565b60405180910390a1505050505050505050565b60036020528060005260406000206000915090508060000160009054906101000a900473ffffffffffffffffffffffffffffffffffffffff1690806001018054600181600116156101000203166002900480601f016020809104026020016040519081016040528092919081815260200182805460018160011615610100020316600290048015611b425780601f10611b1757610100808354040283529160200191611b42565b820191906000526020600020905b815481529060010190602001808311611b2557829003601f168201915b505050505090806002018054600181600116156101000203166002900480601f016020809104026020016040519081016040528092919081815260200182805460018160011615610100020316600290048015611be05780601f10611bb557610100808354040283529160200191611be0565b820191906000526020600020905b815481529060010190602001808311611bc357829003601f168201915b505050505090806003015490806004018054600181600116156101000203166002900480601f016020809104026020016040519081016040528092919081815260200182805460018160011615610100020316600290048015611c845780601f10611c5957610100808354040283529160200191611c84565b820191906000526020600020905b815481529060010190602001808311611c6757829003601f168201915b505050505090806005018054600181600116156101000203166002900480601f016020809104026020016040519081016040528092919081815260200182805460018160011615610100020316600290048015611d225780601f10611cf757610100808354040283529160200191611d22565b820191906000526020600020905b815481529060010190602001808311611d0557829003601f168201915b5050505050905086565b6004602052816000526040600020602052806000526040600020600091509150508054600181600116156101000203166002900480601f016020809104026020016040519081016040528092919081815260200182805460018160011615610100020316600290048015611de15780601f10611db657610100808354040283529160200191611de1565b820191906000526020600020905b815481529060010190602001808311611dc457829003601f168201915b505050505081565b828054600181600116156101000203166002900490600052602060002090601f016020900481019282601f10611e2a57805160ff1916838001178555611e58565b82800160010185558215611e58579182015b82811115611e57578251825591602001919060010190611e3c565b5b509050611e659190611ee9565b5090565b828054600181600116156101000203166002900490600052602060002090601f016020900481019282601f10611eaa57805160ff1916838001178555611ed8565b82800160010185558215611ed8579182015b82811115611ed7578251825591602001919060010190611ebc565b5b509050611ee59190611ee9565b5090565b611f0b91905b80821115611f07576000816000905550600101611eef565b5090565b90565b600081359050611f1d816129e2565b92915050565b600081359050611f32816129f9565b92915050565b600082601f830112611f4957600080fd5b8135611f5c611f578261288c565b61285f565b91508082526020830160208301858383011115611f7857600080fd5b611f83838284612982565b50505092915050565b600081359050611f9b81612a09565b92915050565b600060208284031215611fb357600080fd5b6000611fc184828501611f8c565b91505092915050565b60008060008060008060008060006101208a8c031215611fe957600080fd5b6000611ff78c828d01611f8c565b99505060206120088c828d01611f0e565b98505060408a013567ffffffffffffffff81111561202557600080fd5b6120318c828d01611f38565b97505060608a013567ffffffffffffffff81111561204e57600080fd5b61205a8c828d01611f38565b96505060808a013567ffffffffffffffff81111561207757600080fd5b6120838c828d01611f38565b95505060a08a013567ffffffffffffffff8111156120a057600080fd5b6120ac8c828d01611f38565b94505060c06120bd8c828d01611f23565b93505060e08a013567ffffffffffffffff8111156120da57600080fd5b6120e68c828d01611f38565b9250506101008a013567ffffffffffffffff81111561210457600080fd5b6121108c828d01611f38565b9150509295985092959850929598565b600080600080600080600060e0888a03121561213b57600080fd5b60006121498a828b01611f8c565b975050602061215a8a828b01611f0e565b965050604088013567ffffffffffffffff81111561217757600080fd5b6121838a828b01611f38565b955050606088013567ffffffffffffffff8111156121a057600080fd5b6121ac8a828b01611f38565b94505060806121bd8a828b01611f8c565b93505060a088013567ffffffffffffffff8111156121da57600080fd5b6121e68a828b01611f38565b92505060c088013567ffffffffffffffff81111561220357600080fd5b61220f8a828b01611f38565b91505092959891949750929550565b6000806040838503121561223157600080fd5b600061223f85828601611f8c565b925050602083013567ffffffffffffffff81111561225c57600080fd5b61226885828601611f38565b9150509250929050565b60008060008060008060c0878903121561228b57600080fd5b600061229989828a01611f8c565b965050602087013567ffffffffffffffff8111156122b657600080fd5b6122c289828a01611f38565b955050604087013567ffffffffffffffff8111156122df57600080fd5b6122eb89828a01611f38565b945050606087013567ffffffffffffffff81111561230857600080fd5b61231489828a01611f38565b935050608087013567ffffffffffffffff81111561233157600080fd5b61233d89828a01611f38565b92505060a061234e89828a01611f23565b9150509295509295509295565b6000806040838503121561236e57600080fd5b600061237c85828601611f8c565b925050602061238d85828601611f8c565b9150509250929050565b6123a08161293a565b82525050565b6123af816128df565b82525050565b6123be816128f1565b82525050565b6123cd8161294c565b82525050565b60006123de826128c3565b6123e881856128ce565b93506123f8818560208601612991565b612401816129c4565b840191505092915050565b6000612417826128b8565b61242181856128ce565b9350612431818560208601612991565b61243a816129c4565b840191505092915050565b61244e81612930565b82525050565b600060c0820190506124696000830189612397565b818103602083015261247b81886123d3565b9050818103604083015261248f81876123d3565b905081810360608301526124a381866123d3565b905081810360808301526124b781856123d3565b90506124c660a08301846123c4565b979650505050505050565b6000610100820190506124e7600083018b6123a6565b81810360208301526124f9818a6123d3565b9050818103604083015261250d81896123d3565b9050818103606083015261252181886123d3565b9050818103608083015261253581876123d3565b905061254460a08301866123c4565b81810360c083015261255681856123d3565b905081810360e083015261256a81846123d3565b90509998505050505050505050565b600060c08201905061258e60008301896123a6565b81810360208301526125a081886123d3565b905081810360408301526125b481876123d3565b90506125c36060830186612445565b81810360808301526125d581856123d3565b905081810360a08301526125e981846123d3565b9050979650505050505050565b600060c08201905061260b60008301896123a6565b818103602083015261261d818861240c565b90508181036040830152612631818761240c565b90508181036060830152612645818661240c565b90508181036080830152612659818561240c565b905061266860a08301846123c4565b979650505050505050565b600061010082019050612689600083018b6123a6565b818103602083015261269b818a61240c565b905081810360408301526126af818961240c565b905081810360608301526126c3818861240c565b905081810360808301526126d7818761240c565b90506126e660a08301866123c4565b81810360c08301526126f8818561240c565b905081810360e083015261270c818461240c565b90509998505050505050505050565b600060c08201905061273060008301896123a6565b8181036020830152612742818861240c565b90508181036040830152612756818761240c565b90506127656060830186612445565b8181036080830152612777818561240c565b905081810360a083015261278b818461240c565b9050979650505050505050565b60006020820190506127ad60008301846123b5565b92915050565b600060208201905081810360008301526127cd818461240c565b905092915050565b600060a08201905081810360008301526127ef81886123d3565b9050818103602083015261280381876123d3565b9050818103604083015261281781866123d3565b9050818103606083015261282b81856123d3565b905061283a60808301846123c4565b9695505050505050565b60006020820190506128596000830184612445565b92915050565b6000604051905081810181811067ffffffffffffffff8211171561288257600080fd5b8060405250919050565b600067ffffffffffffffff8211156128a357600080fd5b601f19601f8301169050602081019050919050565b600081519050919050565b600081519050919050565b600082825260208201905092915050565b60006128ea82612910565b9050919050565b60008115159050919050565b600081905061290b826129d5565b919050565b600073ffffffffffffffffffffffffffffffffffffffff82169050919050565b6000819050919050565b60006129458261295e565b9050919050565b6000612957826128fd565b9050919050565b600061296982612970565b9050919050565b600061297b82612910565b9050919050565b82818337600083830152505050565b60005b838110156129af578082015181840152602081019050612994565b838111156129be576000848401525b50505050565b6000601f19601f8301169050919050565b600381106129df57fe5b50565b6129eb816128df565b81146129f657600080fd5b50565b60038110612a0657600080fd5b50565b612a1281612930565b8114612a1d57600080fd5b5056fea365627a7a72315820c72a702f24c7cf8a543dc66c76dbbeda3ec22ef23dd58d4b2de1ca5bfd19c1d56c6578706572696d656e74616cf564736f6c63430005100040",
  "source": "pragma solidity >=0.5.16;\npragma experimental ABIEncoderV2;\n\n\ncontract ehr{\n\n    //declaring state variables\n    address admin;\n    enum gender {male, female, other}\n\n    // crearting constructor\n    constructor() public{\n        admin = msg.sender;\n    }\n    // creating the structure patient\n    struct patient{\n        address owner;\n        string name;\n        string DOB;\n        string addrs;\n        string email;\n        gender myGender;\n        // bool status;\n    }\n    event PatientCreated(\n        address owner,\n        string name,\n        string DOB,\n        string addrs,\n        string email,\n        gender myGender\n        // bool status\n    );\n    //creating a mapping named person\n    mapping(uint => patient) public person;\n    //function for entering the mobileno of the person and the structure details of that person\n    function setPatient(\n        uint _mobileno,\n        string memory _name,\n    string memory _DOB, string memory _addrs, string memory _email, \n    gender _myGender) public {\n    \n    // for(uint i = 0; i < patient.length; i++) {\n\n    // }\n    person[_mobileno] = patient(msg.sender,_name, _DOB, _addrs, _email, _myGender);\n    \n    emit PatientCreated(msg.sender,_name, _DOB, _addrs, _email, _myGender);\n\n    }\n    // function for viewing the patient using the mobile number\n    function getPatient(\n        uint _mobileno) public view returns (\n            string memory _name,\n            string memory _DOB,\n            string memory _addrs,\n            string memory _email,\n            gender _myGender) {\n\n        _name = person[_mobileno].name;\n        _DOB = person[_mobileno].DOB;\n        _addrs = person[_mobileno].addrs;\n        _email = person[_mobileno].email;\n        _myGender = person[_mobileno].myGender;\n    }\n\n    // function loginPatient(address key) public returns (bool valid) {\n\n    // }\n\n    // creating the structure doctor\n    struct doctor{\n        address publickey;\n        string name;\n        string DOB;\n        string addrs;\n        string email;\n        gender myGender;\n        string hospitalname;\n        string qualifications;\n    }\n    event DoctorCreated(\n        address publickey,\n        string name,\n        string DOB,\n        string addrs,\n        string email,\n        gender myGender,\n        string hospitalname,\n        string qualifications\n    );\n    //creating a mapping named dctr for the doctor\n    mapping(uint => doctor) public dctr;\n\n//function for entering the id of the dctr and the structure details of that doctor\n    function setDoctor(\n        uint _id,\n        address _publickey,\n        string memory _name,\n        string memory _DOB,\n        string memory _addrs,\n        string memory _email,\n        gender _myGender,\n        string memory _hospitalname,\n        string memory _qualifications) public {\n        dctr[_id] = doctor(_publickey, _name, _DOB, _addrs, _email, _myGender, _hospitalname, _qualifications);\n\n        emit DoctorCreated(_publickey, _name, _DOB, _addrs, _email, _myGender, _hospitalname, _qualifications);\n    }\n\n// function for viewing the doctor using the id\n    function getDoctor(uint _id) public view returns (\n        address _publickey,\n        string memory _name,\n        string memory _DOB,\n        string memory _addrs,\n        string memory _email,\n        gender _myGender,\n        string memory _hospitalname,\n        string memory _qualifications){\n\n        _publickey = dctr[_id].publickey;\n        _name = dctr[_id].name;\n        _DOB = dctr[_id].DOB;\n        _addrs = dctr[_id].addrs;\n        _email = dctr[_id].email;\n        _myGender = dctr[_id].myGender;\n        _hospitalname = dctr[_id].hospitalname;\n        _qualifications = dctr[_id].qualifications;\n    }\n\n    //cerating structure for hospital\n    struct hospital{\n        address publickey;\n        string name;\n        string email;\n        uint phone;\n        string ownership;\n        string haddress;\n    }\n\n    event HospitalCreated(\n        address publickey,\n        string name,\n        string email,\n        uint phone,\n        string ownership,\n        string haddress\n    );\n\n    //creating mapping for hospital\n    mapping(uint => hospital) public hospitaldetails;\n\n    //creating modifier for owner only condition\n    modifier only_owner(){\n        require( msg.sender == admin );\n        _;\n    }\n\n    //function to set the hospital with the with the mapping hospital id\n    function setHospital(\n        uint _id,\n        address _publickey,\n        string memory _name,\n        string memory _email,\n        uint  _phone,\n        string memory _ownership, string memory _haddress) public only_owner returns (bool){\n        hospitaldetails[_id] = hospital(_publickey, _name, _email, _phone, _ownership, _haddress);\n    \n        emit HospitalCreated(_publickey, _name, _email, _phone, _ownership, _haddress);\n    } \n    //function to get the hospital details with the hospital id\n    function getHospital(uint _id) public view returns (address _publickey, string memory _name, string memory _email, uint  _phone, string memory _ownership, string memory _haddress){\n\n        _publickey = hospitaldetails[_id].publickey;\n        _name = hospitaldetails[_id].name;\n        _email = hospitaldetails[_id].email;\n        _phone = hospitaldetails[_id].phone;\n        _ownership = hospitaldetails[_id].ownership;\n        _haddress = hospitaldetails[_id].haddress;\n    }\n\n    //creating structure to insert the medical certificates\n    struct medicalcertificates{\n        string record;\n    }\n\n    //uploading medical certificates and viewing the certificates\n\n    mapping(uint => mapping(uint => string)) public addcerti;\n    mapping(uint => uint) public certcount;\n \n\n    function setCertificate (uint _mobileno, string memory _certhash) public {\n     uint ccount = certcount[_mobileno] + 1;\n     addcerti[_mobileno][ccount] = _certhash;\n     setcount(_mobileno, ccount);\n    }\n    function setcount(uint _mobileno, uint _count) public{\n     certcount[_mobileno] = _count;\n    }\n\n    // struct patientHealthData {\n    //     address owner;\n    //     string bloodGroup;\n    //     string height;\n    //     string weight;\n    //     string age;\n    //     bool insurance; \n    //     uint bmi;\n    // }\n\n    // function addPatientHealthData()\n}",
  "sourcePath": "/home/ubuntu/Desktop/EHR-BlockChain/EHR/contracts/EHR.sol",
  "compiler": {
    "name": "solc",
    "version": "0.5.16+commit.9c3226ce.Emscripten.clang"
  },
  "schemaVersion": "3.0.23",
  "updatedAt": "2020-02-23T23:57:02.468Z",
  "devdoc": {
    "methods": {}
  },
  "userdoc": {
    "methods": {}
  }
}